{
  "_format": "hh3-artifact-1",
  "contractName": "QuestFactory",
  "sourceName": "contracts/QuestFactory.sol",
  "abi": [
    {
      "inputs": [
        {
          "internalType": "address",
          "name": "_kyraToken",
          "type": "address"
        }
      ],
      "stateMutability": "nonpayable",
      "type": "constructor"
    },
    {
      "anonymous": false,
      "inputs": [
        {
          "indexed": true,
          "internalType": "address",
          "name": "questAddress",
          "type": "address"
        },
        {
          "indexed": true,
          "internalType": "address",
          "name": "creator",
          "type": "address"
        },
        {
          "indexed": false,
          "internalType": "string",
          "name": "name",
          "type": "string"
        },
        {
          "indexed": false,
          "internalType": "enum Quest.RewardType",
          "name": "rewardType",
          "type": "uint8"
        },
        {
          "indexed": false,
          "internalType": "enum Quest.QuestType",
          "name": "questType",
          "type": "uint8"
        },
        {
          "indexed": false,
          "internalType": "address",
          "name": "rewardToken",
          "type": "address"
        }
      ],
      "name": "QuestCreated",
      "type": "event"
    },
    {
      "inputs": [
        {
          "components": [
            {
              "internalType": "string",
              "name": "name",
              "type": "string"
            },
            {
              "internalType": "string",
              "name": "description",
              "type": "string"
            },
            {
              "internalType": "enum Quest.RewardType",
              "name": "rewardType",
              "type": "uint8"
            },
            {
              "internalType": "enum Quest.QuestType",
              "name": "questType",
              "type": "uint8"
            },
            {
              "internalType": "address",
              "name": "rewardToken",
              "type": "address"
            },
            {
              "internalType": "uint256",
              "name": "rewardAmount",
              "type": "uint256"
            },
            {
              "internalType": "uint256",
              "name": "maxClaims",
              "type": "uint256"
            },
            {
              "internalType": "uint64",
              "name": "expiryTimestamp",
              "type": "uint64"
            },
            {
              "internalType": "bool",
              "name": "isRecurring",
              "type": "bool"
            },
            {
              "internalType": "uint256",
              "name": "recurringInterval",
              "type": "uint256"
            },
            {
              "internalType": "address",
              "name": "nftGateAddress",
              "type": "address"
            },
            {
              "internalType": "uint256",
              "name": "referralBps",
              "type": "uint256"
            }
          ],
          "internalType": "struct Quest.QuestConfig",
          "name": "_config",
          "type": "tuple"
        }
      ],
      "name": "createNFTQuest",
      "outputs": [
        {
          "internalType": "address",
          "name": "",
          "type": "address"
        }
      ],
      "stateMutability": "nonpayable",
      "type": "function"
    },
    {
      "inputs": [
        {
          "components": [
            {
              "internalType": "string",
              "name": "name",
              "type": "string"
            },
            {
              "internalType": "string",
              "name": "description",
              "type": "string"
            },
            {
              "internalType": "enum Quest.RewardType",
              "name": "rewardType",
              "type": "uint8"
            },
            {
              "internalType": "enum Quest.QuestType",
              "name": "questType",
              "type": "uint8"
            },
            {
              "internalType": "address",
              "name": "rewardToken",
              "type": "address"
            },
            {
              "internalType": "uint256",
              "name": "rewardAmount",
              "type": "uint256"
            },
            {
              "internalType": "uint256",
              "name": "maxClaims",
              "type": "uint256"
            },
            {
              "internalType": "uint64",
              "name": "expiryTimestamp",
              "type": "uint64"
            },
            {
              "internalType": "bool",
              "name": "isRecurring",
              "type": "bool"
            },
            {
              "internalType": "uint256",
              "name": "recurringInterval",
              "type": "uint256"
            },
            {
              "internalType": "address",
              "name": "nftGateAddress",
              "type": "address"
            },
            {
              "internalType": "uint256",
              "name": "referralBps",
              "type": "uint256"
            }
          ],
          "internalType": "struct Quest.QuestConfig",
          "name": "_config",
          "type": "tuple"
        }
      ],
      "name": "createTokenQuest",
      "outputs": [
        {
          "internalType": "address",
          "name": "",
          "type": "address"
        }
      ],
      "stateMutability": "nonpayable",
      "type": "function"
    },
    {
      "inputs": [
        {
          "internalType": "address",
          "name": "",
          "type": "address"
        },
        {
          "internalType": "uint256",
          "name": "",
          "type": "uint256"
        }
      ],
      "name": "creatorQuests",
      "outputs": [
        {
          "internalType": "address",
          "name": "",
          "type": "address"
        }
      ],
      "stateMutability": "view",
      "type": "function"
    },
    {
      "inputs": [],
      "name": "getAllQuests",
      "outputs": [
        {
          "internalType": "address[]",
          "name": "",
          "type": "address[]"
        }
      ],
      "stateMutability": "view",
      "type": "function"
    },
    {
      "inputs": [],
      "name": "getQuestCount",
      "outputs": [
        {
          "internalType": "uint256",
          "name": "",
          "type": "uint256"
        }
      ],
      "stateMutability": "view",
      "type": "function"
    },
    {
      "inputs": [
        {
          "internalType": "address",
          "name": "creator",
          "type": "address"
        }
      ],
      "name": "getQuestsByCreator",
      "outputs": [
        {
          "internalType": "address[]",
          "name": "",
          "type": "address[]"
        }
      ],
      "stateMutability": "view",
      "type": "function"
    },
    {
      "inputs": [],
      "name": "kyraToken",
      "outputs": [
        {
          "internalType": "address",
          "name": "",
          "type": "address"
        }
      ],
      "stateMutability": "view",
      "type": "function"
    },
    {
      "inputs": [
        {
          "internalType": "uint256",
          "name": "",
          "type": "uint256"
        }
      ],
      "name": "quests",
      "outputs": [
        {
          "internalType": "address",
          "name": "",
          "type": "address"
        }
      ],
      "stateMutability": "view",
      "type": "function"
    }
  ],
  "bytecode": "0x60a060405234801561000f575f80fd5b5060405161305d38038061305d83398101604081905261002e9161003f565b6001600160a01b031660805261006c565b5f6020828403121561004f575f80fd5b81516001600160a01b0381168114610065575f80fd5b9392505050565b608051612fd96100845f395f6101260152612fd95ff3fe608060405234801562000010575f80fd5b506004361062000090575f3560e01c806381d6b0d8116200005f57806381d6b0d81462000109578063b8a0bf191462000120578063bad205b41462000148578063e085f980146200015f575f80fd5b80632511ccfe14620000945780632ac58c3314620000c85780633bb659a214620000df5780636397178114620000f8575b5f80fd5b620000ab620000a5366004620005b6565b62000176565b6040516001600160a01b0390911681526020015b60405180910390f35b620000ab620000d936600462000614565b6200030d565b620000e962000342565b604051620000bf91906200063f565b5f54604051908152602001620000bf565b620000e96200011a3660046200068d565b620003a3565b620000ab7f000000000000000000000000000000000000000000000000000000000000000081565b620000ab62000159366004620005b6565b62000418565b620000ab62000170366004620006a9565b62000580565b5f806200018a6060840160408501620006e4565b60018111156200019e576200019e620006c1565b14620001ea5760405162461bcd60e51b81526020600482015260166024820152750466163746f72793a204d7573742062652045524332360541b60448201526064015b60405180910390fd5b5f8233604051620001fb90620005a8565b62000208929190620007d5565b604051809103905ff08015801562000222573d5f803e3d5ffd5b505f8054600181810183557f290decd9548b62a8d60345a988386fc84ba6bc95484008f6362f93160ef3e56390910180546001600160a01b0385166001600160a01b03199182168117909255338085526020848152604086208054958601815586529094209092018054909216811790915591925082917f2ee040f19a71b8a838159fd6be653c814e3426f887be70bdbfc3f7ec60004d2e620002c687806200093a565b5f620002d960808b0160608c0162000980565b620002eb60a08c0160808d016200068d565b604051620002fe9594939291906200099c565b60405180910390a39392505050565b6001602052815f5260405f20818154811062000327575f80fd5b5f918252602090912001546001600160a01b03169150829050565b60605f8054806020026020016040519081016040528092919081815260200182805480156200039957602002820191905f5260205f20905b81546001600160a01b031681526001909101906020018083116200037a575b5050505050905090565b6001600160a01b0381165f908152600160209081526040918290208054835181840281018401909452808452606093928301828280156200040c57602002820191905f5260205f20905b81546001600160a01b03168152600190910190602001808311620003ed575b50505050509050919050565b5f60016200042d6060840160408501620006e4565b6001811115620004415762000441620006c1565b14620004905760405162461bcd60e51b815260206004820152601760248201527f466163746f72793a204d757374206265204552433732310000000000000000006044820152606401620001e1565b5f8233604051620004a190620005a8565b620004ae929190620007d5565b604051809103905ff080158015620004c8573d5f803e3d5ffd5b505f8054600181810183557f290decd9548b62a8d60345a988386fc84ba6bc95484008f6362f93160ef3e56390910180546001600160a01b0385166001600160a01b03199182168117909255338085526020848152604086208054958601815586529094209092018054909216811790915591925082917f2ee040f19a71b8a838159fd6be653c814e3426f887be70bdbfc3f7ec60004d2e6200056c87806200093a565b6001620002d960808b0160608c0162000980565b5f81815481106200058f575f80fd5b5f918252602090912001546001600160a01b0316905081565b6125b780620009ed83390190565b5f60208284031215620005c7575f80fd5b813567ffffffffffffffff811115620005de575f80fd5b82016101808185031215620005f1575f80fd5b9392505050565b80356001600160a01b03811681146200060f575f80fd5b919050565b5f806040838503121562000626575f80fd5b6200063183620005f8565b946020939093013593505050565b602080825282518282018190525f9190848201906040850190845b81811015620006815783516001600160a01b0316835292840192918401916001016200065a565b50909695505050505050565b5f602082840312156200069e575f80fd5b620005f182620005f8565b5f60208284031215620006ba575f80fd5b5035919050565b634e487b7160e01b5f52602160045260245ffd5b8035600281106200060f575f80fd5b5f60208284031215620006f5575f80fd5b620005f182620006d5565b5f808335601e1984360301811262000716575f80fd5b830160208101925035905067ffffffffffffffff81111562000736575f80fd5b80360382131562000745575f80fd5b9250929050565b81835281816020850137505f828201602090810191909152601f909101601f19169091010190565b60028110620007875762000787620006c1565b9052565b8035600381106200060f575f80fd5b60038110620007875762000787620006c1565b803567ffffffffffffffff811681146200060f575f80fd5b803580151581146200060f575f80fd5b604081525f620007e6848562000700565b610180806040860152620008006101c0860183856200074c565b925062000811602088018862000700565b868503603f1901606088015292506200082c8484836200074c565b9350506200083d60408801620006d5565b91506200084e608086018362000774565b6200085c606088016200078b565b91506200086d60a08601836200079a565b6200087b60808801620005f8565b6001600160a01b03811660c0870152915060a087013560e0860152610100915060c087013582860152620008b260e08801620007ad565b610120620008cb8188018367ffffffffffffffff169052565b620008d8848a01620007c5565b93506101409150620008ed8288018515159052565b610160935080890135848801525062000908818901620005f8565b6001600160a01b03811687840152905050508501356101a08401526001600160a01b03841660208401529050620005f1565b5f808335601e1984360301811262000950575f80fd5b83018035915067ffffffffffffffff8211156200096b575f80fd5b60200191503681900382131562000745575f80fd5b5f6020828403121562000991575f80fd5b620005f1826200078b565b608081525f620009b16080830187896200074c565b9050620009c2602083018662000774565b620009d160408301856200079a565b6001600160a01b03929092166060919091015294935050505056fe608060405234801562000010575f80fd5b50604051620025b7380380620025b78339810160408190526200003391620003ac565b806001600160a01b0381166200006257604051631e4fbdf760e01b81525f600482015260240160405180910390fd5b6200006d816200020a565b506001805581518290600290819062000087908262000589565b50602082015160018201906200009e908262000589565b50604082015160028201805460ff191660018381811115620000c457620000c462000651565b021790555060608201518160020160016101000a81548160ff02191690836002811115620000f657620000f662000651565b0217905550608082015160028201805462010000600160b01b031916620100006001600160a01b039384160217905560a0830151600383015560c0830151600483015560e08301516005830180546101008601516001600160401b039093166001600160481b031990911617680100000000000000009215159290920291909117905561012083015160068301556101408301516007830180546001600160a01b03191691831691909117905561016090920151600890910155600c805460ff1916600117905582516040808501519051928416927f15139115c870dee812adf85be6d48c5bae97e942b6b367d692ac3fc049652ceb92620001fa92909162000665565b60405180910390a25050620006bd565b5f80546001600160a01b038381166001600160a01b0319831681178455604051919092169283917f8be0079c531659141344cd1fd0a4f28419497f9722a3daafe3b4186f6b6457e09190a35050565b634e487b7160e01b5f52604160045260245ffd5b60405161018081016001600160401b038111828210171562000293576200029362000259565b60405290565b5f5b83811015620002b55781810151838201526020016200029b565b50505f910152565b5f82601f830112620002cd575f80fd5b81516001600160401b0380821115620002ea57620002ea62000259565b604051601f8301601f19908116603f0116810190828211818310171562000315576200031562000259565b816040528381528660208588010111156200032e575f80fd5b6200034184602083016020890162000299565b9695505050505050565b8051600281106200035a575f80fd5b919050565b8051600381106200035a575f80fd5b80516001600160a01b03811681146200035a575f80fd5b80516001600160401b03811681146200035a575f80fd5b805180151581146200035a575f80fd5b5f8060408385031215620003be575f80fd5b82516001600160401b0380821115620003d5575f80fd5b908401906101808287031215620003ea575f80fd5b620003f46200026d565b82518281111562000403575f80fd5b6200041188828601620002bd565b82525060208301518281111562000426575f80fd5b6200043488828601620002bd565b60208301525062000448604084016200034b565b60408201526200045b606084016200035f565b60608201526200046e608084016200036e565b608082015260a083015160a082015260c083015160c08201526200049560e0840162000385565b60e08201526101009150620004ac8284016200039c565b82820152610120915081830151828201526101409150620004cf8284016200036e565b8282015261016091508183015182820152809450505050620004f4602084016200036e565b90509250929050565b600181811c908216806200051257607f821691505b6020821081036200053157634e487b7160e01b5f52602260045260245ffd5b50919050565b601f82111562000584575f81815260208120601f850160051c810160208610156200055f5750805b601f850160051c820191505b8181101562000580578281556001016200056b565b5050505b505050565b81516001600160401b03811115620005a557620005a562000259565b620005bd81620005b68454620004fd565b8462000537565b602080601f831160018114620005f3575f8415620005db5750858301515b5f19600386901b1c1916600185901b17855562000580565b5f85815260208120601f198616915b82811015620006235788860151825594840194600190910190840162000602565b50858210156200064157878501515f19600388901b60f8161c191681555b5050505050600190811b01905550565b634e487b7160e01b5f52602160045260245ffd5b604081525f83518060408401526200068581606085016020880162000299565b601f01601f19168201606001905060028310620006b057634e487b7160e01b5f52602160045260245ffd5b8260208301529392505050565b611eec80620006cb5f395ff3fe608060405234801561000f575f80fd5b5060043610610127575f3560e01c806373b2e80e116100a9578063b77cf9c61161006e578063b77cf9c614610287578063e91a7ca6146102a6578063ee38db95146102b9578063f2fde38b146102c1578063fc9c99ac146102d4575f80fd5b806373b2e80e1461020f57806379502c55146102315780638da5cb5b14610251578063a753a7cb1461026b578063b13b62e71461027e575f80fd5b806343d726d6116100ef57806343d726d6146101c25780636a39d91c146101ca5780636c76c8c9146101dd578063715018a6146101f457806371c9fbc8146101fc575f80fd5b806302fb0c5e1461012b578063150b7a021461014d578063193ebeea146101855780631e83409a1461019a57806337895e44146101af575b5f80fd5b600c546101389060ff1681565b60405190151581526020015b60405180910390f35b61016c61015b366004611a1b565b630a85bd0160e11b95945050505050565b6040516001600160e01b03199091168152602001610144565b61018d6102dc565b6040516101449190611b29565b6101ad6101a8366004611c22565b61054f565b005b6101ad6101bd366004611c42565b61085a565b6101ad6109de565b6101ad6101d8366004611cb1565b610a1e565b6101e6600e5481565b604051908152602001610144565b6101ad610ad9565b6101e661020a366004611cb1565b610aea565b61013861021d366004611c22565b600f6020525f908152604090205460ff1681565b610239610b09565b6040516101449c9b9a99989796959493929190611cc8565b5f546040516001600160a01b039091168152602001610144565b6101ad610279366004611d65565b610c84565b6101e6600b5481565b6101e6610295366004611c22565b60106020525f908152604090205481565b6101ad6102b4366004611cb1565b611019565b6101ad611149565b6101ad6102cf366004611c22565b611329565b6101e6611363565b61033c6040805161018081018252606080825260208201529081015f81526020015f81525f6020820181905260408201819052606082018190526080820181905260a0820181905260c0820181905260e082018190526101009091015290565b6002604051806101800160405290815f8201805461035990611d8f565b80601f016020809104026020016040519081016040528092919081815260200182805461038590611d8f565b80156103d05780601f106103a7576101008083540402835291602001916103d0565b820191905f5260205f20905b8154815290600101906020018083116103b357829003601f168201915b505050505081526020016001820180546103e990611d8f565b80601f016020809104026020016040519081016040528092919081815260200182805461041590611d8f565b80156104605780601f1061043757610100808354040283529160200191610460565b820191905f5260205f20905b81548152906001019060200180831161044357829003601f168201915b5050509183525050600282015460209091019060ff16600181111561048757610487611af1565b600181111561049857610498611af1565b81526020016002820160019054906101000a900460ff1660028111156104c0576104c0611af1565b60028111156104d1576104d1611af1565b815260028201546201000090046001600160a01b0390811660208301526003830154604083015260048301546060830152600583015467ffffffffffffffff81166080840152600160401b900460ff16151560a0830152600683015460c083015260078301541660e082015260089091015461010090910152919050565b610557611414565b6009546001600160a01b031615610624576009546040516370a0823160e01b81523360048201525f916001600160a01b0316906370a0823190602401602060405180830381865afa1580156105ae573d5f803e3d5ffd5b505050506040513d601f19601f820116820180604052508101906105d29190611dc7565b116106245760405162461bcd60e51b815260206004820152601c60248201527f51756573743a204e465420726571756972656420746f20636c61696d0000000060448201526064015b60405180910390fd5b600c5460ff1661066a5760405162461bcd60e51b815260206004820152601160248201527051756573743a204e6f742061637469766560781b604482015260640161061b565b60075467ffffffffffffffff1642106106b65760405162461bcd60e51b815260206004820152600e60248201526d145d595cdd0e88115e1c1a5c995960921b604482015260640161061b565b600654600b54106107055760405162461bcd60e51b8152602060048201526019602482015278145d595cdd0e8813585e0818db185a5b5cc81c995858da1959603a1b604482015260640161061b565b600754600160401b900460ff161561078257600854335f908152601060205260409020546107339190611df2565b42101561077d5760405162461bcd60e51b815260206004820152601860248201527728bab2b9ba1d1029ba34b6361034b71031b7b7b63237bbb760411b604482015260640161061b565b6107da565b335f908152600f602052604090205460ff16156107da5760405162461bcd60e51b8152602060048201526016602482015275145d595cdd0e88105b1c9958591e4818db185a5b595960521b604482015260640161061b565b5f600454610100900460ff1660028111156107f7576107f7611af1565b146108445760405162461bcd60e51b815260206004820152601c60248201527f51756573743a20566572696669636174696f6e20726571756972656400000000604482015260640161061b565b61084e338261143e565b61085760018055565b50565b600160045460ff16600181111561087357610873611af1565b146108ba5760405162461bcd60e51b8152602060048201526017602482015276145d595cdd0e88139bdd08185b88139195081c5d595cdd604a1b604482015260640161061b565b5f5b818110156109d9576004546201000090046001600160a01b03166342842e0e33308686868181106108ef576108ef611e0b565b905060200201356040518463ffffffff1660e01b815260040161091493929190611e1f565b5f604051808303815f87803b15801561092b575f80fd5b505af115801561093d573d5f803e3d5ffd5b50505050600d83838381811061095557610955611e0b565b83546001810185555f9485526020948590209190940292909201359190920155507ff36d7a61da5869f1f725b62b3414422372ff984566d321f9758ec768fb859a888383838181106109a9576109a9611e0b565b905060200201356040516109bf91815260200190565b60405180910390a1806109d181611e43565b9150506108bc565b505050565b6109e661184e565b610a1c6040518060400160405280601581526020017426b0b73ab0b61031b637b9b290313c9037bbb732b960591b81525061187a565b565b5f60045460ff166001811115610a3657610a36611af1565b14610a835760405162461bcd60e51b815260206004820152601960248201527f51756573743a204e6f7420616e20455243323020717565737400000000000000604482015260640161061b565b600454610aa1906201000090046001600160a01b03163330846118b4565b60405181815233907fb72712ce4f427e59460e718077779daa16ef7cdf3f673552e38e2cde826b68989060200160405180910390a250565b610ae161184e565b610a1c5f611914565b600d8181548110610af9575f80fd5b5f91825260209091200154905081565b600280548190610b1890611d8f565b80601f0160208091040260200160405190810160405280929190818152602001828054610b4490611d8f565b8015610b8f5780601f10610b6657610100808354040283529160200191610b8f565b820191905f5260205f20905b815481529060010190602001808311610b7257829003601f168201915b505050505090806001018054610ba490611d8f565b80601f0160208091040260200160405190810160405280929190818152602001828054610bd090611d8f565b8015610c1b5780601f10610bf257610100808354040283529160200191610c1b565b820191905f5260205f20905b815481529060010190602001808311610bfe57829003601f168201915b50505050600283015460038401546004850154600586015460068701546007880154600890980154969760ff80871698610100880482169850620100009097046001600160a01b039081169767ffffffffffffffff861695600160401b9004909216939216908c565b610c8c611414565b6009546001600160a01b031615610d54576009546040516370a0823160e01b81523360048201525f916001600160a01b0316906370a0823190602401602060405180830381865afa158015610ce3573d5f803e3d5ffd5b505050506040513d601f19601f82011682018060405250810190610d079190611dc7565b11610d545760405162461bcd60e51b815260206004820152601c60248201527f51756573743a204e465420726571756972656420746f20636c61696d00000000604482015260640161061b565b600c5460ff16610d9a5760405162461bcd60e51b815260206004820152601160248201527051756573743a204e6f742061637469766560781b604482015260640161061b565b60075467ffffffffffffffff164210610de65760405162461bcd60e51b815260206004820152600e60248201526d145d595cdd0e88115e1c1a5c995960921b604482015260640161061b565b600654600b5410610e355760405162461bcd60e51b8152602060048201526019602482015278145d595cdd0e8813585e0818db185a5b5cc81c995858da1959603a1b604482015260640161061b565b600754600160401b900460ff1615610eb257600854335f90815260106020526040902054610e639190611df2565b421015610ead5760405162461bcd60e51b815260206004820152601860248201527728bab2b9ba1d1029ba34b6361034b71031b7b7b63237bbb760411b604482015260640161061b565b610f0a565b335f908152600f602052604090205460ff1615610f0a5760405162461bcd60e51b8152602060048201526016602482015275145d595cdd0e88105b1c9958591e4818db185a5b595960521b604482015260640161061b565b6001600454610100900460ff166002811115610f2857610f28611af1565b14610f6d5760405162461bcd60e51b8152602060048201526015602482015274145d595cdd0e88139bdd0818481454881c5d595cdd605a1b604482015260640161061b565b6040516bffffffffffffffffffffffff193060601b166020820152634b59524160e01b60348201525f906038016040516020818303038152906040528051906020012090508083146110015760405162461bcd60e51b815260206004820181905260248201527f51756573743a20496e76616c696420766572696669636174696f6e20636f6465604482015260640161061b565b61100b338361143e565b5061101560018055565b5050565b600160045460ff16600181111561103257611032611af1565b146110795760405162461bcd60e51b8152602060048201526017602482015276145d595cdd0e88139bdd08185b88139195081c5d595cdd604a1b604482015260640161061b565b60048054604051632142170760e11b8152620100009091046001600160a01b0316916342842e0e916110b19133913091879101611e1f565b5f604051808303815f87803b1580156110c8575f80fd5b505af11580156110da573d5f803e3d5ffd5b5050600d80546001810182555f919091527fd7b6990105719101dabeb77144f2a3385c8033acd3af97e9423a695e81ad1eb50183905550506040518181527ff36d7a61da5869f1f725b62b3414422372ff984566d321f9758ec768fb859a88906020015b60405180910390a150565b61115161184e565b600c5460ff16158061116f575060075467ffffffffffffffff164210155b6111b15760405162461bcd60e51b815260206004820152601360248201527251756573743a205374696c6c2061637469766560681b604482015260640161061b565b5f60045460ff1660018111156111c9576111c9611af1565b0361127757600480546040516370a0823160e01b815230928101929092525f91620100009091046001600160a01b0316906370a0823190602401602060405180830381865afa15801561121e573d5f803e3d5ffd5b505050506040513d601f19601f820116820180604052508101906112429190611dc7565b905080156108575761085761125e5f546001600160a01b031690565b6004546201000090046001600160a01b03169083611963565b600e545b600d54811015610857576004546001600160a01b0362010000909104166342842e0e306112af5f546001600160a01b031690565b600d85815481106112c2576112c2611e0b565b905f5260205f2001546040518463ffffffff1660e01b81526004016112e993929190611e1f565b5f604051808303815f87803b158015611300575f80fd5b505af1158015611312573d5f803e3d5ffd5b50505050808061132190611e43565b91505061127b565b61133161184e565b6001600160a01b03811661135a57604051631e4fbdf760e01b81525f600482015260240161061b565b61085781611914565b5f8060045460ff16600181111561137c5761137c611af1565b0361140457600554600480546040516370a0823160e01b815230928101929092526201000090046001600160a01b0316906370a0823190602401602060405180830381865afa1580156113d1573d5f803e3d5ffd5b505050506040513d601f19601f820116820180604052508101906113f59190611dc7565b6113ff9190611e5b565b905090565b600e54600d546113ff9190611e7a565b60026001540361143757604051633ee5aeb560e01b815260040160405180910390fd5b6002600155565b6001600160a01b0382165f908152600f60209081526040808320805460ff1916600117905560109091528120429055600b80549161147b83611e43565b909155505f905060045460ff16600181111561149957611499611af1565b036116d6576005546001600160a01b038216158015906114cb5750826001600160a01b0316826001600160a01b031614155b80156114d85750600a5415155b1561159e57600a546005545f91612710916114f39190611e8d565b6114fd9190611e5b565b90506115098183611df2565b600480546040516370a0823160e01b815230928101929092526201000090046001600160a01b0316906370a0823190602401602060405180830381865afa158015611556573d5f803e3d5ffd5b505050506040513d601f19601f8201168201806040525081019061157a9190611dc7565b1061159c5760045461159c906201000090046001600160a01b03168483611963565b505b600480546040516370a0823160e01b815230928101929092528291620100009091046001600160a01b0316906370a0823190602401602060405180830381865afa1580156115ee573d5f803e3d5ffd5b505050506040513d601f19601f820116820180604052508101906116129190611dc7565b101561166b5760405162461bcd60e51b815260206004820152602260248201527f51756573743a20496e73756666696369656e74207265776172642062616c616e604482015261636560f01b606482015260840161061b565b600454611688906201000090046001600160a01b03168483611963565b604080518281525f60208201526001600160a01b0380851692908616917f4bbe6b9abde3c57178a72bffd1868d868a0562c805a8effd250d9f76a2bd8280910160405180910390a350611810565b600d54600e54106117295760405162461bcd60e51b815260206004820152601860248201527f51756573743a204e6f204e46547320617661696c61626c650000000000000000604482015260640161061b565b5f600d600e548154811061173f5761173f611e0b565b5f918252602082200154600e8054919350909161175b83611e43565b909155505060048054604051632142170760e11b8152620100009091046001600160a01b0316916342842e0e916117989130918891879101611e1f565b5f604051808303815f87803b1580156117af575f80fd5b505af11580156117c1573d5f803e3d5ffd5b50506040805160018152602081018590526001600160a01b038087169450871692507f4bbe6b9abde3c57178a72bffd1868d868a0562c805a8effd250d9f76a2bd8280910160405180910390a3505b600654600b5410611015576110156040518060400160405280601281526020017113585e0818db185a5b5cc81c995858da195960721b81525061187a565b5f546001600160a01b03163314610a1c5760405163118cdaa760e01b815233600482015260240161061b565b600c805460ff191690556040517f33e2b1e7f7e38f35a4a2c028afd807aa5148e92af5748f8052cae2fce3004a4d9061113e908390611ea4565b61190e84856001600160a01b03166323b872dd8686866040516024016118dc93929190611e1f565b604051602081830303815290604052915060e01b6020820180516001600160e01b038381831617835250505050611994565b50505050565b5f80546001600160a01b038381166001600160a01b0319831681178455604051919092169283917f8be0079c531659141344cd1fd0a4f28419497f9722a3daafe3b4186f6b6457e09190a35050565b6040516001600160a01b038381166024830152604482018390526109d991859182169063a9059cbb906064016118dc565b5f8060205f8451602086015f885af1806119b3576040513d5f823e3d81fd5b50505f513d915081156119ca5780600114156119d7565b6001600160a01b0384163b155b1561190e57604051635274afe760e01b81526001600160a01b038516600482015260240161061b565b80356001600160a01b0381168114611a16575f80fd5b919050565b5f805f805f60808688031215611a2f575f80fd5b611a3886611a00565b9450611a4660208701611a00565b935060408601359250606086013567ffffffffffffffff80821115611a69575f80fd5b818801915088601f830112611a7c575f80fd5b813581811115611a8a575f80fd5b896020828501011115611a9b575f80fd5b9699959850939650602001949392505050565b5f81518084525f5b81811015611ad257602081850181015186830182015201611ab6565b505f602082860101526020601f19601f83011685010191505092915050565b634e487b7160e01b5f52602160045260245ffd5b60028110611b1557611b15611af1565b9052565b60038110611b1557611b15611af1565b602081525f8251610180806020850152611b476101a0850183611aae565b91506020850151601f19858403016040860152611b648382611aae565b9250506040850151611b796060860182611b05565b506060850151611b8c6080860182611b19565b5060808501516001600160a01b03811660a08601525060a085015160c085015260c085015160e085015260e0850151610100611bd38187018367ffffffffffffffff169052565b8601519050610120611be88682018315159052565b860151610140868101919091528601519050610160611c11818701836001600160a01b03169052565b959095015193019290925250919050565b5f60208284031215611c32575f80fd5b611c3b82611a00565b9392505050565b5f8060208385031215611c53575f80fd5b823567ffffffffffffffff80821115611c6a575f80fd5b818501915085601f830112611c7d575f80fd5b813581811115611c8b575f80fd5b8660208260051b8501011115611c9f575f80fd5b60209290920196919550909350505050565b5f60208284031215611cc1575f80fd5b5035919050565b61018081525f611cdc61018083018f611aae565b8281036020840152611cee818f611aae565b915050611cfe604083018d611b05565b611d0b606083018c611b19565b6001600160a01b03998a16608083015260a082019890985260c081019690965267ffffffffffffffff9490941660e08601529115156101008501526101208401529093166101408201526101600191909152949350505050565b5f8060408385031215611d76575f80fd5b82359150611d8660208401611a00565b90509250929050565b600181811c90821680611da357607f821691505b602082108103611dc157634e487b7160e01b5f52602260045260245ffd5b50919050565b5f60208284031215611dd7575f80fd5b5051919050565b634e487b7160e01b5f52601160045260245ffd5b80820180821115611e0557611e05611dde565b92915050565b634e487b7160e01b5f52603260045260245ffd5b6001600160a01b039384168152919092166020820152604081019190915260600190565b5f60018201611e5457611e54611dde565b5060010190565b5f82611e7557634e487b7160e01b5f52601260045260245ffd5b500490565b81810381811115611e0557611e05611dde565b8082028115828204841417611e0557611e05611dde565b602081525f611c3b6020830184611aae56fea26469706673582212201a573747b6d86a1e6c2457dba00643265c7a0b9b6782660f2102c2959921355d64736f6c63430008140033a26469706673582212208ad5733f1cc94a6b32d032e063ddf2b883e9988ef2429b561bca304c824a9b9964736f6c63430008140033",
  "linkReferences": {},
  "deployedLinkReferences": {},
  "immutableReferences": {
    "9310": [
      {
        "length": 32,
        "start": 294
      }
    ]
  },
  "inputSourceName": "project/contracts/QuestFactory.sol",
  "buildInfoId": "solc-0_8_20-c5772827c332ea77045ad9ed4340914c6e298079"
}